{
  "_format": "hh-sol-artifact-1",
  "contractName": "ClickerGame",
  "sourceName": "contracts/ClickerGame.sol",
  "abi": [
    {
      "anonymous": false,
      "inputs": [
        {
          "indexed": true,
          "internalType": "address",
          "name": "player",
          "type": "address"
        },
        {
          "indexed": false,
          "internalType": "uint256",
          "name": "newScore",
          "type": "uint256"
        }
      ],
      "name": "ScoreUpdated",
      "type": "event"
    },
    {
      "inputs": [
        {
          "internalType": "address",
          "name": "_player",
          "type": "address"
        }
      ],
      "name": "getPlayer",
      "outputs": [
        {
          "internalType": "uint256",
          "name": "score",
          "type": "uint256"
        },
        {
          "internalType": "uint256",
          "name": "lastUpdate",
          "type": "uint256"
        }
      ],
      "stateMutability": "view",
      "type": "function"
    },
    {
      "inputs": [
        {
          "internalType": "address",
          "name": "_player",
          "type": "address"
        }
      ],
      "name": "getScore",
      "outputs": [
        {
          "internalType": "uint256",
          "name": "",
          "type": "uint256"
        }
      ],
      "stateMutability": "view",
      "type": "function"
    },
    {
      "inputs": [
        {
          "internalType": "address",
          "name": "",
          "type": "address"
        }
      ],
      "name": "players",
      "outputs": [
        {
          "internalType": "uint256",
          "name": "score",
          "type": "uint256"
        },
        {
          "internalType": "uint256",
          "name": "lastUpdate",
          "type": "uint256"
        }
      ],
      "stateMutability": "view",
      "type": "function"
    },
    {
      "inputs": [
        {
          "internalType": "uint256",
          "name": "_score",
          "type": "uint256"
        }
      ],
      "name": "updateScore",
      "outputs": [],
      "stateMutability": "nonpayable",
      "type": "function"
    }
  ],
  "bytecode": "0x608060405234801561001057600080fd5b5061053f806100206000396000f3fe608060405234801561001057600080fd5b506004361061004c5760003560e01c80635c12cd4b14610051578063d47875d014610082578063e2eb41ff146100b2578063f853e34d146100e3575b600080fd5b61006b600480360381019061006691906103a9565b6100ff565b6040516100799291906103ef565b60405180910390f35b61009c600480360381019061009791906103a9565b610177565b6040516100a99190610418565b60405180910390f35b6100cc60048036038101906100c791906103a9565b6101c2565b6040516100da9291906103ef565b60405180910390f35b6100fd60048036038101906100f8919061045f565b6101e6565b005b60008060008060008573ffffffffffffffffffffffffffffffffffffffff1673ffffffffffffffffffffffffffffffffffffffff168152602001908152602001600020604051806040016040529081600082015481526020016001820154815250509050806000015181602001519250925050915091565b60008060008373ffffffffffffffffffffffffffffffffffffffff1673ffffffffffffffffffffffffffffffffffffffff168152602001908152602001600020600001549050919050565b60006020528060005260406000206000915090508060000154908060010154905082565b6000803373ffffffffffffffffffffffffffffffffffffffff1673ffffffffffffffffffffffffffffffffffffffff168152602001908152602001600020600001548111610269576040517f08c379a0000000000000000000000000000000000000000000000000000000008152600401610260906104e9565b60405180910390fd5b806000803373ffffffffffffffffffffffffffffffffffffffff1673ffffffffffffffffffffffffffffffffffffffff16815260200190815260200160002060000181905550426000803373ffffffffffffffffffffffffffffffffffffffff1673ffffffffffffffffffffffffffffffffffffffff168152602001908152602001600020600101819055503373ffffffffffffffffffffffffffffffffffffffff167f66ead48cfe0e1d1aa8bad492e906c348dfcfeecbf3b7b2cdf9b1f3cfa42a29458260405161033b9190610418565b60405180910390a250565b600080fd5b600073ffffffffffffffffffffffffffffffffffffffff82169050919050565b60006103768261034b565b9050919050565b6103868161036b565b811461039157600080fd5b50565b6000813590506103a38161037d565b92915050565b6000602082840312156103bf576103be610346565b5b60006103cd84828501610394565b91505092915050565b6000819050919050565b6103e9816103d6565b82525050565b600060408201905061040460008301856103e0565b61041160208301846103e0565b9392505050565b600060208201905061042d60008301846103e0565b92915050565b61043c816103d6565b811461044757600080fd5b50565b60008135905061045981610433565b92915050565b60006020828403121561047557610474610346565b5b60006104838482850161044a565b91505092915050565b600082825260208201905092915050565b7f4e65772073636f7265206d757374206265206869676865720000000000000000600082015250565b60006104d360188361048c565b91506104de8261049d565b602082019050919050565b60006020820190508181036000830152610502816104c6565b905091905056fea2646970667358221220d5b80754cc5c95d6697564943fa863853f741f4181aec56626a3cc8d6220d4ae64736f6c63430008130033",
  "linkReferences": {},
  "deployedLinkReferences": {}
}